:020000040800F2
:1000000058110020890B0008E50B0008E50B0008DB
:10001000E50B0008E50B0008E50B000800000000F8
:10002000000000000000000000000000E50B0008D8
:10003000E50B000800000000E50B000801120008B5
:10004000E50B0008E50B0008E50B0008E50B0008D0
:10005000E50B0008E50B00084509000869090008E0
:100060008D090008B1090008D5090008E50B000852
:10007000E50B0008E50B0008E50B0008E50B0008A0
:10008000E50B0008E50B0008E50B0008E50B000890
:10009000E50B0008E50B0008E50B0008F90900086E
:1000A000E50B0008E50B0008E50B0008E50B000870
:1000B000E50B0008E50B0008E50B0008E50B000860
:1000C000E50B0008E50B0008E50B0008E50B000850
:1000D000E50B0008E50B0008E50B0008E50B000840
:1000E000850A0008E50B0008E50B0008E50B000891
:1000F000E50B0008E50B0008E50B0008E50B000820
:10010000E50B0008E50B0008E50B0008E50B00080F
:10011000E50B0008E50B0008E50B0008E50B0008FF
:10012000E50B0008E50B0008E50B0008E50B0008EF
:10013000E50B0008E50B0008E50B0008E50B0008DF
:10014000E50B0008E50B0008E50B0008E50B0008CF
:10015000E50B0008E50B0008E50B0008E50B0008BF
:10016000E50B0008E50B0008E50B0008E50B0008AF
:10017000E50B0008E50B0008E50B0008E50B00089F
:10018000E50B0008E50B000880B485B000AF78608F
:10019000104B1A687B6802FB03F3FB600E4B1A6876
:1001A0000E4B9A4204D00C4B1A680D4B9A4205D163
:1001B000084B1B68FA68D31AFB60FFE700BFFB68B7
:1001C0005A1EFA60002BFAD11437BD465DF8047B45
:1001D000704700BF480900200C0000200095BA0AB3
:1001E00000E1F50580B582B000AF02460B46FA711A
:1001F000BB7101F075F800F05BF84AF6C870FFF7C4
:10020000C3FF2A4BBA79DA70284BFA791A71274B57
:1002100000225A71254B00229A71244B00225A70F9
:10022000BB79012B06D9214B5B7843F00803DAB286
:100230001E4B5A70032000F0D9F841F29410FFF7DA
:10024000A3FF032000F0D2F841F29410FFF79CFFC7
:10025000032000F0CBF841F29410FFF795FF022045
:1002600000F0C4F86420FFF78FFF104B5B7843F079
:100270002003DBB2184600F085F80C4B04221A70FC
:1002800000F092F900F074F8084B02229A70074BC4
:100290009B7843F00403DBB2184600F073F841F298
:1002A0009410FFF771FF0837BD4680BD1809002084
:1002B00080B582B002AF00230093002301932A4847
:1002C00004210122002301F0ABFA00230093002354
:1002D0000193254880210122002301F0A1FA002387
:1002E00000930023019321484FF480510122002301
:1002F00001F096FA00230093002301931B484FF46A
:1003000000510122002301F08BFA00230093002307
:10031000019315484FF480510122002301F080FA27
:1003200000230093002301930F484FF40051012252
:10033000002301F075FA0C4B04225A830A4B8022E9
:100340005A830A4B4FF480525A83084B4FF40052A1
:100350005A83054B4FF480525A83034B4FF400529B
:100360005A83BD4680BD00BF000402400008024021
:1003700080B500AF012000F005F840F6B830FFF777
:1003800003FF80BD80B582B000AF0346FB71094B0F
:1003900004225A83FB791B09DBB2184600F026F8C9
:1003A000FB7903F00F03DBB2184600F01FF80837A3
:1003B000BD4680BD0004024080B582B000AF034658
:1003C000FB71094B04221A83FB791B09DBB2184627
:1003D00000F00CF8FB7903F00F03DBB2184600F0D5
:1003E00005F80837BD4680BD0004024080B582B0E4
:1003F00000AF0346FB71FB7903F00803002B04D028
:10040000204B4FF400521A8303E01E4B4FF400526E
:100410005A83FB7903F00403002B04D0194B4FF4EB
:1004200080521A8303E0174B4FF480525A83FB79B2
:1004300003F00203002B04D0134B4FF400521A8335
:1004400003E0114B4FF400525A83FB7903F0010390
:10045000002B04D00C4B4FF480521A8303E00A4B5C
:100460004FF480525A83074B80221A831420FFF7DF
:100470008BFE044B80225A831420FFF785FE083739
:10048000BD4680BD000402400008024080B584B033
:1004900000AF02460B46FA71BB71134A07F10C0319
:1004A00010681860114BDB78BA799A4201D30023A7
:1004B000BB710E4BFA795A710C4BBA799A71BB79B0
:1004C00007F11002134413F8042CFB791344DBB238
:1004D000DBB263F07F03DBB2DBB21846FFF752FFFB
:1004E0001037BD4680BD00BFA46300081809002076
:1004F00080B582B000AF0B463A600246FA71BB711C
:10050000FA79BB7910461946FFF7C0FF42E0254B48
:100510005A79244B1B799A4210D3224B00225A71EC
:10052000204B9B790133DAB21E4B9A711D4B5A79DD
:100530001C4B9B7910461946FFF7A8FF3B681B78B8
:100540000A2B0ED1174B9B790133DAB2154B9A71F6
:10055000144B5A79134B9B7910461946FFF796FFB7
:1005600015E03B681B780D2B06D10E4B9B790020C4
:100570001946FFF78BFF0AE03B681B781846FFF728
:100580001BFF084B5B790133DAB2064B5A713B68AB
:1005900001333B603B681B78002BB8D10837BD4660
:1005A00080BD00BF1809002080B500AF074B1B7845
:1005B00043F00403DAB2054B1A70044B1B7843F086
:1005C0000803DBB21846FFF7DDFE80BD18090020E6
:1005D00080B500AF074B1B7843F00103DAB2054B3F
:1005E0001A70044B1B7843F00803DBB21846FFF780
:1005F000C9FE80BD1809002080B500AF074B1B78ED
:1006000023F00103DAB2054B1A70044B1B7843F058
:100610000803DBB21846FFF7B5FE80BD18090020BD
:1006200080B500AF074B1B7843F00203DAB2054BED
:100630001A70044B1B7843F00803DBB21846FFF72F
:10064000A1FE80BD1809002080B500AF074B1B78C4
:1006500023F00203DAB2054B1A70044B1B7843F007
:100660000803DBB21846FFF78DFE80BD1809002095
:1006700080B584B000AF03463960FB71FB7903F0AD
:100680000703FB71FB79DB00DBB243F04003DBB215
:10069000DBB21846FFF776FE0023FB7309E0FB7B15
:1006A0003A6813441B781846FFF786FEFB7B01333C
:1006B000FB73FB7B072BF2D91037BD4680BD00BF13
:1006C00090B589B002AF786013460A467A807B7095
:1006D0007B88002B05D07A887B88013B1340002B58
:1006E00022D000237B751AE07A887B7D42FA03F3DF
:1006F00003F00103002B0FD07B7D012202FA03F3EC
:100700009AB27B78786811461A46FFF7D9FF0346FC
:10071000002B01D001230BE17B7D01337B757B7DB9
:100720000F2BE1D9002303E1834B1A687B88134028
:10073000002B05D1804B5A687B881340002B01D0D9
:100740000123F5E07B88802B43D0802B11DC082B24
:1007500039D0082B06DC022B2FD0042B30D0012BF4
:1007600028D03CE0202B34D0402B32D0102B2DD081
:1007700035E0B3F5006F2FD0B3F5006F09DCB3F5AA
:10078000007F26D0B3F5806F26D0B3F5807F20D0D0
:1007900025E0B3F5005F1FD0B3F5005F03DCB3F5D0
:1007A000805F19D01BE0B3F5804F15D0B3F5004F33
:1007B00012D014E00623BB7513E00723BB7510E0CD
:1007C0000823BB750DE00923BB750AE00A23BB753E
:1007D00007E01723BB7504E02823BB7501E0012364
:1007E000A6E07B78012B02D10123FB7507E07B7823
:1007F000002B02D10223FB7501E00023FB757B88EF
:10080000FA7D0092002201927868194600220023A6
:1008100001F006F87B88184601F01EF803463B7588
:10082000786801F031F80346FB74444B434A526C3C
:1008300042F480425A64424B3A7D9208D2B2404917
:10084000387D8008C0B2023051F82000397D01F0B7
:10085000030189000F2404FA01F1C9430140023267
:1008600043F82210364B3A7D9208D2B23449387D93
:100870008008C0B2023051F82000FC7C397D01F0C4
:100880000301890004FA01F10143023243F8221006
:10089000294B294A11687A88D2430A401A60264BAC
:1008A000254A51687A88D2430A405A60224B224A2C
:1008B00011687A880A431A601F4B1F4AD1687A88E8
:1008C000D2430A40DA601C4B1B4A91687A88D243B3
:1008D0000A409A607B78012B06D1174B164AD168E3
:1008E0007A880A43DA6015E07B78002B06D1124B38
:1008F000114A91687A880A439A600BE00E4B0E4ABF
:10090000D1687A880A43DA600B4B0B4A91687A887F
:100910000A439A60BB7D3B730A237B733B7DBB73A9
:100920000123FB7307F10C03184600F0C5FD0023FB
:1009300018461C37BD4690BD003C014000380240BF
:100940000038014080B500AF064B5B6903F001033E
:10095000002B05D0034B01225A61012000F026FB39
:1009600080BD00BF003C014080B500AF064B5B6915
:1009700003F00203002B05D0034B02225A61022030
:1009800000F014FB80BD00BF003C014080B500AF0B
:10099000064B5B6903F00403002B05D0034B0422D4
:1009A0005A61042000F002FB80BD00BF003C014002
:1009B00080B500AF064B5B6903F00803002B05D040
:1009C000034B08225A61082000F0F0FA80BD00BFF6
:1009D000003C014080B500AF064B5B6903F010039B
:1009E000002B05D0034B10225A61102000F0DEFAD4
:1009F00080BD00BF003C014080B500AF204B5B696B
:100A000003F02003002B05D01D4B20225A6120202B
:100A100000F0CCFA1A4B5B6903F04003002B05D0C1
:100A2000174B40225A61402000F0C0FA144B5B691A
:100A300003F08003002B05D0114B80225A618020E7
:100A400000F0B4FA0E4B5B6903F48073002B07D0FF
:100A50000B4B4FF480725A614FF4807000F0A6FA8D
:100A6000074B5B6903F40073002B07D0044B4FF472
:100A700000725A614FF4007000F098FA80BD00BF18
:100A8000003C014080B500AF2A4B5B6903F48063F2
:100A9000002B07D0274B4FF480625A614FF48060DF
:100AA00000F084FA234B5B6903F40063002B07D04A
:100AB000204B4FF400625A614FF4006000F076FA68
:100AC0001C4B5B6903F48053002B07D0194B4FF488
:100AD00080525A614FF4805000F068FA154B5B6900
:100AE00003F40053002B07D0124B4FF400525A610D
:100AF0004FF4005000F05AFA0E4B5B6903F4804348
:100B0000002B07D00B4B4FF480425A614FF48040CA
:100B100000F04CFA074B5B6903F40043002B07D04D
:100B2000044B4FF400425A614FF4004000F03EFA8B
:100B300080BD00BF003C014080B582B002AF002301
:100B400000930323019306484FF4704101220023D0
:100B500000F066FE024B4FF470425A83BD4680BDE2
:100B6000000C024080B582B002AF02230093002344
:100B70000193044801210022002300F051FEBD46EC
:100B800080BD00BF0000024080B582B000AF104BB6
:100B90007B60104B3B6007E03B681A1D3A607A6847
:100BA000111D796012681A603A680B4B9A42F3D3B0
:100BB0000A480B494FF000028842B8BF40F8042BA6
:100BC000FFF6FAAF00F036F90837BD4680BD00BF2A
:100BD0009465000800000020AC080020AC0800204C
:100BE0005409002080B400AFFEE700BF80B485B098
:100BF00000AF7860074B1B68FB6000BF054B1A68AD
:100C0000FB68D21A7B689A42F8D31437BD465DF868
:100C1000047B7047B808002080B500AF00F086FB69
:100C200000201049FFF724FD00F05AFB102002219C
:100C3000FFF7D8FAFFF780FFFFF794FF002000F0DE
:100C400099FC02200021084AFFF752FC01200121F3
:100C5000064AFFF74DFC4FF4FA70FFF7C7FFFFF7A6
:100C600087FB80BD04000020A8630008B86300086B
:100C700080B586B000AF00237B6100237B6000233A
:100C8000BB600023FB6000233B6100200021624A1F
:100C9000FFF72EFC00200121604AFFF729FCFFF737
:100CA000BFFCFFF795FC00200121FFF7EFFB8EE072
:100CB00000F0C8FC03461A46594B1A70584B1B7873
:100CC000FF2B00F08480564B1B780B2B56D801A1CC
:100CD00051F823F0050D00080D0D0008150D000852
:100CE0001D0D0008250D00082D0D0008350D00080C
:100CF0003D0D0008450D00084D0D0008550D00087C
:100D0000690D0008474B00221A6038E0454B01226C
:100D10001A6034E0434B02221A6030E0414B032258
:100D20001A602CE03F4B04221A6028E03D4B05225C
:100D30001A6024E03B4B06221A6020E0394B072260
:100D40001A601CE0374B08221A6018E0354B092264
:100D50001A6014E07B69002B03D07B69013B7B6147
:100D600031E003237B612EE07B69032B03D07B6999
:100D700001337B6127E000237B6124E000BFFFF7A4
:100D800063FCFFF739FC274B1A687B699B0007F16E
:100D900018010B4443F8142C7B699B0007F11802DF
:100DA000134453F8143C204820491A4601F000FD32
:100DB0007B69DBB2184601211B4AFFF799FBFFF75D
:100DC0002FFCFFF705FC78690121FFF75FFB184B4B
:100DD0001B6903F00103002B3FF46AAFFFF734FCFB
:100DE000FFF70AFCC820FFF701FFFFF7C1FAC82090
:100DF000FFF7FCFE7A68BB681344642202FB03F130
:100E0000FA6813469B0013445B00CA183B691344FD
:100E100018461837BD4680BDC8630008D463000873
:100E2000450900200000002040090020DC63000884
:100E30000000024080B582B002AFFFF7EDFE00E097
:100E400000BFFFF795FAFFF713FF02464C4B1A60FD
:100E500000E000BFFFF78CFA00200021494AFFF7AD
:100E600047FB494B00221A608023009347484849BA
:100E70004FF48072464B00F0B1F84448012100F075
:100E800017F9434B4FF480521A83414B4FF4804281
:100E90005A8328E000F0D6FB03461A463D4B1A70F1
:100EA0003C4B1B780C2BCBD00D2BD2D0374800F00D
:100EB000D3F8364B1A68344B1A60334B1B68364AEA
:100EC00082FB03121A445211DB17D31A33483449F8
:100ED0001A4601F06DFC06200121304AFFF708FB9D
:100EE0000A20FFF783FE284B1B682B4A82FB031264
:100EF0001A445211DB17D21A214B1B689A42C9DBE4
:100F0000284B1B685A1C274B1A60214B4FF4805208
:100F10005A831F4B4FF480421A8300F093FB034621
:100F20001A461C4B1A7005E000F08CFB03461A466B
:100F3000184B1A70174B1B780F2BF5D1154B1B78DC
:100F40000F2B17D1FFF714FA00200021164AFFF7E4
:100F5000CFFA144B1B68114811491A4601F028FCBE
:100F6000062001210D4AFFF7C3FA4FF49670FFF7F0
:100F70003DFE6FE740F6B830FFF738FEFEE700BFF2
:100F80003C090020E0630008AC0800202009002094
:100F9000000C02404509002089888888400900200B
:100FA000DC630008B0080020F463000880B582B05C
:100FB00000AF0346FB80054B1B8BFA889A4202D197
:100FC000024800F083F80837BD4680BD20090020A4
:100FD00080B500AF00F006FC80BD00BF80B586B0D4
:100FE00002AFF860B9603B601346FB80FB68BA68EB
:100FF0001A61FB683A685A61FB68FA881A83FB68D1
:101000003A8B5A83FB681A69FB681B8B104619469A
:101010000222FFF755FBFB685A69FB685B8B0121D5
:10102000009100210191104619460022002300F092
:10103000F7FBFB6800225A72FB680022DA60FB684B
:1010400000225A60FB6800221A60FB6801229A7233
:101050001037BD4680BD00BF80B483B000AF78605C
:101060007B68DA687B681B68D21A7B685A607B6889
:10107000DA687B681A607B68DB68002B04DA7B68BF
:1010800001221A7201230CE07B68DB68002B04DD6F
:101090007B6800221A72002303E07B6802221A7226
:1010A000022318460C37BD465DF8047B704700BF2D
:1010B00080B483B000AF78600B46FB707B68FA7831
:1010C0005A720C37BD465DF8047B704780B485B01A
:1010D00000AF78607B681B691A697B681B8B1340C3
:1010E000002B0CBF00230123DBB2FB737B685B6921
:1010F0001A697B685B8B1340002B0CBF0023012314
:10110000DBB2BB737B689B7AFA7B9A4227D07B6801
:10111000FA7B9A727B689B7A002B20D17B685B7A82
:10112000002B0ED1BB7B012B05D17B68DB685A1EDF
:101130007B68DA6013E07B68DB685A1C7B68DA60E6
:101140000DE0BB7B012B05D17B68DB685A1C7B68FB
:10115000DA6004E07B68DB685A1E7B68DA6014376B
:10116000BD465DF8047B704780B483B000AF034692
:101170003960FB7197F90730002B0BDA0D49FB79C9
:1011800003F00F03043B3A68D2B21201D2B20B440F
:101190001A7609E0084997F907303A68D2B2120185
:1011A000D2B20B4483F800230C37BD465DF8047BB4
:1011B000704700BF00ED00E000E100E080B582B0C4
:1011C00000AF78607B68B3F1807F01D3012311E029
:1011D0000A4B7A6822F07F42013A5A604FF0FF30A2
:1011E0000F21FFF7C1FF054B00229A60034B072236
:1011F0001A60002318460837BD4680BD10E000E0A5
:1012000080B582B000AF334B1B685A1C314B1A605B
:10121000314B1B68002B04D02F4B1B685A1E2E4BE2
:101220001A60FFF7D5FE0023FB714BE0FB792B4AD8
:101230009B0013445B68002B41D0FB79274A9B003D
:1012400013445B681B7B002B39D0FB79234A9B003E
:1012500013445B689B68002B31D0FB791F4A9B00CD
:1012600013445B689A68013A9A60FB791B4A9B00B9
:1012700013445B689B68002B21D1FB79174A9B00C4
:1012800013445B681B699847FB79144A9B0013441D
:101290005A68FB7911499B000B445B681B6893609B
:1012A000FB790E4A9B0013445B685B68002B06D1F8
:1012B000FB790A4A9B0013445B6800221A73FB798E
:1012C0000133FB71054B1B78FA799A42AED308378C
:1012D000BD4680BDB8080020BC080020C40800201E
:1012E00080B500AF0C4B1A680C4BA3FB02139B0993
:1012F0001846FFF763FF0346002B00D0FEE7064BBE
:101300001B689A09064BA3FB02139A0A054B1A6045
:10131000054B01221A7080BD0C000020D34D6210D5
:101320001791650248090020C008002080B500AF71
:10133000114B114A126842F001021A600E4B002252
:101340009A600D4A0C4B1B6823F0847323F480339E
:101350001360094B094A5A60074B074A126822F486
:1013600080221A60044B0022DA6000F00BF8044B74
:101370004FF000629A6080BD0038024010300024B7
:1013800000ED00E080B483B000AF00237B60002359
:101390003B60354B344A126842F480321A60324B5B
:1013A0001B6803F400333B607B6801337B603B6860
:1013B000002B03D17B68B3F5A06FF0D12A4B1B68DB
:1013C00003F40033002B02D001233B6001E0002333
:1013D0003B603B68012B42D1234B234A126C42F005
:1013E00080521A64214B214A126842F480421A60EA
:1013F0001D4B1D4A92689A601B4B1B4A926842F42F
:1014000000429A60184B184A926842F4A0529A60BF
:10141000154B174A5A60144B134A126842F08072F7
:101420001A6000BF104B1B6803F00073002BF9D04B
:10143000104B40F205621A600B4B0B4A926822F087
:1014400003029A60084B084A926842F002029A60CE
:1014500000BF054B9B6803F00C03082BF9D10C3738
:10146000BD465DF8047B70470038024000700040C4
:1014700019544007003C024080B485B000AF78604A
:101480000B4B1B68002B02D1094B0A4A1A60084B10
:101490001B68FB60064B1A687B681A44044B1A6091
:1014A000FB6818461437BD465DF8047B704700BFE3
:1014B000DC0800205409002080B485B000AF7860BB
:1014C0000023FB730023BB730F237B737B68DB78E4
:1014D000002B37D0254BDB68DB4303F4E0631B0AAA
:1014E000FB73FB7BC3F10403BB737A7BFB7B42FA88
:1014F00003F37B737B685B781A46BB7B02FA03F3CA
:10150000FB737B689A787B7B1340DAB2FB7B1343D7
:10151000FB73FB7B1B01FB73154A7B681B78134431
:10152000FA7B83F80023124B7A6812785209D2B200
:101530007968097801F01F01012000FA01F143F8F0
:1015400022100EE00A4B7A6812785209D2B27968FA
:10155000097801F01F01012000FA01F1203243F85F
:1015600022101437BD465DF8047B704700ED00E0A3
:1015700000E100E080B584B002AF0346FB712E4B62
:10158000FA791A7001230093012301932B4801215A
:101590000122002300F044F9012300930123019369
:1015A000264802210122002300F03AF9012300938A
:1015B00001230193214804210122002300F030F986
:1015C0001D4B1B78002B09D10123009301230193AC
:1015D0001A4808210122002300F022F90123009378
:1015E00001230193164802210022002300F018F97C
:1015F00001230093012301931148042100220023B9
:1016000000F00EF901230093012301930C480821F7
:101610000022002300F004F9012300930123019329
:10162000074820210022002300F0FAF8002000F0F3
:101630001BF80837BD4680BD4C090020000C024055
:101640000008024080B483B000AF064B1B78FB71EA
:10165000044BFF221A70FB7918460C37BD465DF823
:10166000047B70473000002080B483B000AF034695
:10167000FB71164B01221A83144B02221A83134B5F
:1016800004221A83124B1B78002B02D10F4B082225
:101690001A83FB79012B02D10C4B01225A83FB796F
:1016A000022B02D1094B02225A83FB79032B02D170
:1016B000064B04225A83FB79042B02D1034B0822E8
:1016C0005A830C37BD465DF8047B7047000C02401E
:1016D0004C09002080B483B000AF0346FB711D4B62
:1016E0001B6903F00203002B04D1FB79013B1A4A6A
:1016F000D35C28E0174B1B6903F00403002B05D1D2
:10170000FB79013B144A13441B791CE0114B1B6904
:1017100003F00803002B05D1FB79013B0E4A13446B
:101720001B7A10E00D4B1B78002B0BD1094B1B696A
:1017300003F02003002B05D1FB79013B064A13443B
:101740001B7B00E0FF2318460C37BD465DF8047B89
:10175000704700BF00080240200000204C09002014
:1017600080B582B000AF0120FFF77EFF0120FFF7B8
:10177000B1FF0346FB71FB79FF2B01D0FB792BE016
:101780000220FFF771FF0220FFF7A4FF0346FB7161
:10179000FB79FF2B01D0FB791EE00320FFF764FFEC
:1017A0000320FFF797FF0346FB71FB79FF2B01D066
:1017B000FB7911E00A4B1B78002B0CD10420FFF7BA
:1017C00053FF0420FFF786FF0346FB71FB79FF2BD5
:1017D00001D0FB7900E0FF2318460837BD4680BDE5
:1017E0004C09002080B500AF0B4B1B8801339AB227
:1017F000094B1A80084B1B88632B0CD9074B1B78AD
:10180000FF2B08D1044B00221A80FFF7A9FF0346E3
:101810001A46024B1A7080BDE008002030000020FC
:1018200080B584B002AF786079807A703B707B8835
:10183000002B00D10CE0786800F038F879887A78CD
:101840003B78387C0090387D0190786800F044F84F
:101850000837BD4680BD00BF80B485B000AF0346E9
:10186000FB800023FB8105E0FB890133FB81FB88C2
:101870005B08FB80FB88012BF6D8FB8918461437E0
:10188000BD465DF8047B704780B483B000AF7860DC
:101890007B6803F13F4303F57E039B0A9BB2184626
:1018A0000C37BD465DF8047B704700BFB0B582B011
:1018B00000AF7860074C074B1D6B7868FFF7E4FFBB
:1018C0000346012202FA03F32B4323630837BD4684
:1018D000B0BD00BF0038024080B485B000AF786072
:1018E00079807A703B700023FB7355E07A88FB7B2C
:1018F00042FA03F303F00103002B00D149E07B68B7
:10190000DA68FB7B5B00032101FA03F3DB431A4037
:10191000397EFB7B5B0001FA03F31A437B68DA60D4
:101920007B681A68FB7B5B00032101FA03F3DB434E
:101930001A407978FB7B5B0001FA03F31A437B685A
:101940001A607B78012B02D07B78022B21D17B6837
:101950005A68FB7B012101FA03F39BB2DB431A4077
:101960003978FB7B01FA03F39BB21A437B685A6018
:101970007B689A68FB7B5B00032101FA03F3DB437E
:101980001A40397FFB7B5B0001FA03F31A437B6843
:101990009A60FB7B0133FB73FB7B0F2BA6D91437BB
:1019A000BD465DF8047B704781F0004102E000BF56
:1019B00083F0004330B54FEA41044FEA430594EA0F
:1019C000050F08BF90EA020F1FBF54EA000C55EA4A
:1019D000020C7FEA645C7FEA655C00F0E2804FEA1B
:1019E0005454D4EB5555B8BF6D420CDD2C4480EAFD
:1019F000020281EA030382EA000083EA010180EA2D
:101A0000020281EA0303362D88BF30BD11F0004F7A
:101A10004FEA01314FF4801C4CEA113102D04042B0
:101A200061EB410113F0004F4FEA03334CEA1333EB
:101A300002D0524263EB430394EA050F00F0A78003
:101A4000A4F10104D5F1200E0DDB02FA0EFC22FAFE
:101A500005F2801841F1000103FA0EF2801843FAF2
:101A600005F359410EE0A5F120050EF1200E012AE3
:101A700003FA0EFC28BF4CF0020C43FA05F3C01821
:101A800051EBE37101F0004507D54FF0000EDCF19A
:101A9000000C7EEB00006EEB0101B1F5801F1BD343
:101AA000B1F5001F0CD349085FEA30004FEA3C0C47
:101AB00004F101044FEA445212F5800F80F09A803D
:101AC000BCF1004F08BF5FEA500C50F1000041EB41
:101AD000045141EA050130BD5FEA4C0C404141EB45
:101AE000010111F4801FA4F10104E9D191F0000F6C
:101AF00004BF01460020B1FA81F308BF2033A3F1EF
:101B00000B03B3F120020CDA0C3208DD02F1140CE5
:101B1000C2F10C0201FA0CF021FA02F10CE002F120
:101B20001402D8BFC2F1200C01FA02F120FA0CFC19
:101B3000DCBF41EA0C019040E41AA2BF01EB045162
:101B4000294330BD6FEA04041F3C1CDA0C340EDC60
:101B500004F11404C4F1200220FA04F001FA02F3A3
:101B600040EA030021FA04F345EA030130BDC4F161
:101B70000C04C4F1200220FA02F001FA04F340EA56
:101B80000300294630BD21FA04F0294630BD94F007
:101B9000000F83F4801306BF81F480110134013DEE
:101BA0004EE77FEA645C18BF7FEA655C29D094EA5F
:101BB000050F08BF90EA020F05D054EA000C04BFDD
:101BC0001946104630BD91EA030F1EBF00210020C8
:101BD00030BD5FEA545C05D14000494128BF41F067
:101BE000004130BD14F580043CBF01F5801130BDCB
:101BF00001F0004545F0FE4141F470014FF0000056
:101C000030BD7FEA645C1ABF194610467FEA655C06
:101C10001CBF0B46024650EA013406BF52EA0335A8
:101C200091EA030F41F4002130BD00BF90F0000F96
:101C300004BF0021704730B54FF4806404F13204D2
:101C40004FF000054FF0000150E700BF90F0000F8B
:101C500004BF0021704730B54FF4806404F13204B2
:101C600010F0004548BF40424FF000013EE700BF82
:101C700042004FEAE2014FEA31014FEA02701FBF12
:101C800012F07F4393F07F4F81F06051704792F0E4
:101C9000000F14BF93F07F4F704730B54FF460745E
:101CA00001F0004521F0004120E700BF50EA0102A9
:101CB00008BF704730B54FF000050AE050EA010256
:101CC00008BF704730B511F0004502D5404261EBC6
:101CD00041014FF4806404F132045FEA915C3FF407
:101CE000DCAE4FF003025FEADC0C18BF03325FEAA0
:101CF000DC0C18BF033202EBDC02C2F1200300FA55
:101D000003FC20FA02F001FA03FE40EA0E0021FA79
:101D100002F11444C1E600BF70B54FF0FF0C4CF463
:101D2000E06C1CEA11541DBF1CEA135594EA0C0F19
:101D300095EA0C0F00F0DEF82C4481EA030621EA54
:101D40004C5123EA4C5350EA013518BF52EA03358F
:101D500041F4801143F4801338D0A0FB02CE4FF041
:101D60000005E1FB02E506F00042E0FB03E54FF071
:101D70000006E1FB03569CF0000F18BF4EF0010E69
:101D8000A4F1FF04B6F5007F64F5407404D25FEA65
:101D90004E0E6D4146EB060642EAC62141EA555118
:101DA0004FEAC52040EA5E504FEACE2EB4F1FD0C5A
:101DB00088BFBCF5E06F1ED8BEF1004F08BF5FEAD8
:101DC000500E50F1000041EB045170BD06F000468A
:101DD00046EA010140EA020081EA0301B4EB5C0437
:101DE000C2BFD4EB0C0541EA045170BD41F480112F
:101DF0004FF0000E013C00F3AB8014F1360FDEBF54
:101E0000002001F0004170BDC4F10004203C35DA2F
:101E10000C341BDC04F11404C4F1200500FA05F3B2
:101E200020FA04F001FA05F240EA020001F0004253
:101E300021F0004110EBD37021FA04F642EB0601C9
:101E40005EEA430E08BF20EAD37070BDC4F10C04F3
:101E5000C4F1200500FA04F320FA05F001FA04F2B7
:101E600040EA020001F0004110EBD37041F10001A3
:101E70005EEA430E08BF20EAD37070BDC4F12005AE
:101E800000FA05F24EEA020E20FA04F301FA05F216
:101E900043EA020321FA04F001F0004121FA04F2BE
:101EA00020EA020000EBD3705EEA430E08BF20EA8E
:101EB000D37070BD94F0000F0FD101F000464000C8
:101EC00041EB010111F4801F08BF013CF7D041EA4A
:101ED000060195F0000F18BF704703F0004652004E
:101EE00043EB030313F4801F08BF013DF7D043EA1F
:101EF0000603704794EA0C0F0CEA135518BF95EAD5
:101F00000C0F0CD050EA410618BF52EA4306D1D15B
:101F100081EA030101F000414FF0000070BD50EA7A
:101F2000410606BF1046194652EA430619D094EA04
:101F30000C0F02D150EA013613D195EA0C0F05D1EE
:101F400052EA03361CBF104619460AD181EA030142
:101F500001F0004141F0FE4141F470014FF00000FA
:101F600070BD41F0FE4141F4780170BD70B54FF095
:101F7000FF0C4CF4E06C1CEA11541DBF1CEA135515
:101F800094EA0C0F95EA0C0F00F0A7F8A4EB0504F7
:101F900081EA030E52EA03354FEA013100F08880EE
:101FA0004FEA03334FF0805545EA131343EA1263B7
:101FB0004FEA022245EA111545EA10654FEA00266C
:101FC0000EF000419D4208BF964244F1FD0404F525
:101FD000407402D25B084FEA3202B61A65EB030581
:101FE0005B084FEA32024FF480104FF4002CB6EB3E
:101FF000020E75EB030E22BFB61A754640EA0C00BE
:102000005B084FEA3202B6EB020E75EB030E22BFFD
:10201000B61A754640EA5C005B084FEA3202B6EB3E
:10202000020E75EB030E22BFB61A754640EA9C00FD
:102030005B084FEA3202B6EB020E75EB030E22BFCD
:10204000B61A754640EADC0055EA060E18D04FEA8B
:10205000051545EA16754FEA06164FEAC30343EA2B
:1020600052734FEAC2025FEA1C1CC0D111F4801FF8
:102070000BD141EA00014FF000004FF0004CB6E7F1
:1020800011F4801F04BF01430020B4F1FD0C88BF90
:10209000BCF5E06F3FF6AFAEB5EB030C04BFB6EB9B
:1020A000020C5FEA500C50F1000041EB045170BD8E
:1020B0000EF0004E4EEA113114EB5C04C2BFD4EBBB
:1020C0000C0541EA045170BD41F480114FF0000E3F
:1020D000013C90E645EA060E8DE60CEA135594EABB
:1020E0000C0F08BF95EA0C0F3FF43BAF94EA0C0FBE
:1020F0000AD150EA01347FF434AF95EA0C0F7FF433
:1021000025AF104619462CE795EA0C0F06D152EA86
:1021100003353FF4FDAE1046194622E750EA41066A
:1021200018BF52EA43067FF4C5AE50EA41047FF47B
:102130000DAF52EA43057FF4EBAE12E74FF0FF3CE0
:1021400006E000BF4FF0010C02E000BF4FF0010CB1
:102150004DF804CD4FEA410C7FEA6C5C4FEA430C2A
:1021600018BF7FEA6C5C1BD001B050EA410C0CBF79
:1021700052EA430C91EA030F02BF90EA020F0020DB
:10218000704710F1000F91EA030F58BF994208BF42
:1021900090422CBFD8176FEAE37040F001007047FF
:1021A0004FEA410C7FEA6C5C02D150EA013C07D156
:1021B0004FEA430C7FEA6C5CD6D152EA033CD3D0A1
:1021C0005DF8040B704700BF8446104662468C469B
:1021D0001946634600E000BF01B5FFF7B7FF0028CE
:1021E00048BF10F1000F01BD4DF808EDFFF7F4FFF7
:1021F0000CBF012000205DF808FB00BF4DF808ED82
:10220000FFF7EAFF34BF012000205DF808FB00BFA4
:102210004DF808EDFFF7E0FF94BF012000205DF8C6
:1022200008FB00BF4DF808EDFFF7CEFF94BF01207B
:1022300000205DF808FB00BF4DF808EDFFF7C4FF74
:1022400034BF012000205DF808FB00BF2DE9F04FEE
:1022500001F10B05162D83B0064627D935F0070589
:1022600027D4A94225D8304600F08CFAB5F5FC7F7A
:1022700026D2C14F4FEAD50C07EBCC03DC689C4259
:1022800000F0D2816368E268A16823F0030323446D
:1022900030465D68CA6045F0010591605D6000F000
:1022A00073FA0834204603B0BDE8F08F1025A94228
:1022B000D9D900240C232046336003B0BDE8F08F49
:1022C0005FEA552C00F08A80BCF1040F00F26081B7
:1022D0004FEA951C0CF1380C4FEA4C01A64F07EB66
:1022E0008101CC68A14205D10CE0002B7ADAE468C8
:1022F000A14207D0626822F00302531B0F2BF4DDCA
:102300000CF1FF3C0CF1010C9B4B3C6903F1080EF6
:10231000744500F07E81616821F003014A1B0F2A99
:1023200000F36481002AC3F814E0C3F810E06ADA0D
:10233000B1F5007F80F03A81C90803EBC1004FEA94
:10234000A1085A688168A1604FF0010909FA08F8EC
:1023500048EA0202E0605A608460CC604FEAAC0355
:102360000120984090425BD8024206D12CF0030C29
:10237000400002420CF1040CFAD007EBCC084446B2
:10238000E146E3689C4207D145E1002A80F256818C
:10239000DB689C4200F03F81596821F003014A1B31
:1023A0000F2AF2DD1C46D3F80CC054F8088F5919D7
:1023B00045F0010942F00105C3F804903046C8F821
:1023C0000CC0CCF8088079613961C1F80CE0C1F823
:1023D00008E04D608A5000F0D7F963E77E214FF0A6
:1023E0003F0C7BE72244E3685068A16840F0010598
:1023F000CB6030469960556000F0C6F9083420463D
:1024000003B0BDE8F08F214430464B6843F0010330
:102410004B6000F0B9F90834204603B0BDE8F08FF6
:10242000BC68636823F00309A94504D3C5EB09031D
:102430000F2B00F39180514B514A196813680133F7
:1024400005EB010A04EB090B00F061810AF5805AE3
:102450000AF10F0A2AF47F6A2AF00F0A3046514621
:10246000019200F093F9B0F1FF3F8046019A00F02D
:102470000081834500F2FA80DFF810C1DCF80030FB
:10248000C3455344CCF8003000F04A8112683C49FF
:1024900001321BBFCBEB080B5B44C1F80080CCF8CA
:1024A000003018F0070300F01381C3F10802C3F5F0
:1024B000805390440833C244CAF30B0ACAEB030AA0
:1024C00051463046CDF804C000F060F9431CDDF8F9
:1024D00004C000F03581C8EB0002524442F0010212
:1024E000DCF80030C7F808805344BC42C8F8042028
:1024F000CCF80030DFF894A015D0B9F10F0F40F2FE
:10250000EA806168A9F10C0222F0070201F0010ED5
:10251000A118052042EA0E0E0F2AC4F804E0486014
:10252000886000F21181174ABC6811688B4288BF2D
:102530001360154A11688B4288BF1360626822F0ED
:1025400003029542C5EB020301D80F2B04DC304691
:1025500000F01AF90024A5E6621943F0010345F0E2
:10256000010565603046BA60536000F00DF908342B
:10257000204603B0BDE8F08F34000020EC080020B6
:1025800040040020E8080020E4080020F0080020B3
:10259000BCF1140F61D9BCF1540F00F28F804FEAE7
:1025A000153C0CF16E0C4FEA4C0197E64B0A042BDC
:1025B00058D9142B00F2AE8003F15B02500007EBF8
:1025C0008000DFF8BC818368834200F08A805A680B
:1025D00022F00302914202D29B689842F7D1D96857
:1025E0007A68E160A3608C60DC60B7E6611942F054
:1025F000010745F001056560304659611961C1F870
:102600000CE0C1F808E04F608A50083400F0BCF8D4
:1026100048E65A68A2E609F1010919F0030F04F12E
:1026200008047FF4AEAE2DE004F108036469A34210
:1026300008BF0CF1020C3FF467AE23E619441C46B8
:102640004868DB6854F8082F40F001054D603046BB
:10265000D3609A6000F098F824E60CF15B0C4FEA26
:102660004C013BE68A0938325000A8E7BC423FF4EF
:1026700003AFBC68626822F0030262E7D8F800800A
:1026800098457BD11CF0030FA8F108030CF1FF3C27
:10269000F4D17B6823EA00037B60400098423FF658
:1026A000BFAE00283FF4BCAE0342CC467FF465AE1B
:1026B000400003420CF1040CFAD05EE6BCF5AA7FA0
:1026C0001AD84FEAD53C0CF1770C4FEA4C0105E6DD
:1026D0004FF48053EFE60123C8F80430444600224B
:1026E0002FE791100120D8F8042000FA01F10A43E5
:1026F000C8F80420194674E740F254539C451BD88F
:102700004FEA954C0CF17C0C4FEA4C01E6E50AF1DE
:10271000100AA3E6542B1FD80A0B6E3250004EE766
:10272000CBF30B0100297FF4B1AE0AEB0901BA68C3
:1027300041F001015160F6E6FC214FF07E0CCDE541
:1027400001224FF0000ACBE604F10801304602F006
:10275000D5FADAF80030E6E6B3F5AA7F03D8CA0B5B
:10276000773250002BE740F25452934203D88A0C40
:102770007C32500023E7FC207E2220E77B688CE738
:1027800034000020704700BF704700BF38B5074CC9
:102790000023054608462360FEF76EFE431C00D06A
:1027A00038BD2368002BFBD02B6038BD50090020BA
:1027B0000EB4F0B59CB021AB0F4953F8042B019334
:1027C00005466FF00044086802954FF402774FF613
:1027D000FF7602A90695ADF8147004940794ADF83D
:1027E000166000F00BF8029B00221A701CB0BDE8C6
:1027F000F04003B0704700BF700800202DE9F04F93
:10280000C9B0914610930C910D9002F045FB006801
:10281000159002F059FF0C9C1890A3891A0603D555
:102820002369002B01F08D8038ACA44608942B94CA
:1028300000250024CDE91645002311932D932C93F8
:102840001A9319930E93664699F80030002B00F006
:10285000F880252B00F0F58009F1010201E0252B1D
:1028600004D0144601322378002BF8D1C9EB0405BB
:102870007DB12C9B2D9AC6F8009001332A44072B7A
:1028800075602D922C9300F3C28008360E98284470
:102890000E902378002B00F0C280002394F8018072
:1028A0008DF88F301A460F93099304F101094FF008
:1028B000FF340A9409F10109A8F12003582B00F212
:1028C000C783DFE813F06A02C503C5037102C503BD
:1028D000C503C503C503C503C50314036403C503CA
:1028E0009D00C000C50378027F027F027F027F0245
:1028F0007F027F027F027F027F02C503C503C503FB
:10290000C503C503C503C503C503C503C5039002BD
:102910006F03C5036F03C503C503C503C503680380
:10292000C503C5037800C503C503C503C503C503B7
:102930005900C503C503AF02C503C503C503C503DD
:10294000C503C503C503C503C503C5033703480352
:102950006F036F036F03FF024803C503C50308033A
:10296000C503C5027C002103A503C503D902C50325
:102970005F00C503C503DE00DDF824C04CF0100C79
:10298000CDF824C0099CA20600F15683099CE306F9
:1029900000F1E085DDF824C01CF0400F00F0DA857E
:1029A000DDF840C0BCF800400CF1040C0025012308
:1029B000CDF840C08CE0099D45F010050995DDF883
:1029C00024C01CF0200340F02C83DDF824C01CF050
:1029D000100240F0B885DDF824C01CF0400300F080
:1029E000B285DDF840C0BCF800400CF1040C134681
:1029F0000025CDF840C06BE00F9C109364420F940B
:102A0000099D45F00405099599F8008052E70D9855
:102A10000C992BAA02F088FE40B938AE36E72D9B00
:102A200023B10D980C992BAA02F07EFE0C9C0E98F7
:102A3000A38913F0400F18BF4FF0FF3049B0BDE835
:102A4000F08F4C4625E799F80080B8F12A0F09F17C
:102A5000010001F01881A8F13003092B98BF002173
:102A600001F2778010F8018B01EB810103EB41014A
:102A7000A8F13003092BF5D941EAE1710A918146A9
:102A80001AE7099DA14C1A94AF068DF88F2040F1EA
:102A9000D181DDF840C00CF1070323F0070303F1F7
:102AA00008041094D3E90045DDF824C01CF0010FA0
:102AB00000F0648454EA050000F0608430234CF098
:102AC000020C8DF890308DF89180CDF824C002234F
:102AD0004FF0000A8DF88FA00A99002905DBDDF878
:102AE00024C02CF0800CCDF824C054EA050040F03E
:102AF000C7820A99002940F0C382002B40F03A8433
:102B0000DDF824C01CF0010F00F0348448AF3023FE
:102B100007F8413D089DEC1BDDF828C00025644501
:102B2000A8BFA446CDF82CC01495BAF1000F02D06E
:102B30000B9D01350B95099B13F00203129302D0F4
:102B40000B9D02350B95DDF824C01CF0840CCDF8EC
:102B50004CC040F092820F9DDDF82CC0CCEB050BF1
:102B6000BBF1000F40F38982BBF1100F2D992C9A15
:102B7000DFF8A0A12CDD1B97304657461025CA462A
:102B80000C9EA1460D9C06E0ABF1100BBBF1100FA3
:102B900000F1080017DD01321031072A2D912C9227
:102BA00007604560F0DD204631462BAA02F0BCFDEF
:102BB00000287FF43BAFABF1100BBBF1100F2D9948
:102BC0002C9A38A8E7DC4C46D146BA461B9F0646ED
:102BD00001320BEB010C072ACDF8B4C02C9286E829
:102BE000000C00F31C849DF88FA00836BAF1000F8A
:102BF0000FD02C9B01330CF1010C0DF18F01012240
:102C0000072BCDF8B4C02C9386E8060000F39A8316
:102C10000836129B73B12C9B01330CF1020C24A9D2
:102C20000222072BCDF8B4C02C9386E8060000F3EF
:102C300095830836139D802D00F0CC820A9DC4EB4D
:102C4000050ABAF1000F3BDDBAF1100F2C9B304D95
:102C50002BDD0A9432464FF0100B2E4661460D9C38
:102C60000C9D06E0AAF1100ABAF1100F02F1080259
:102C700017DD01331031072B2D912C9382E840088A
:102C8000F0DD204629462BAA02F04EFD00287FF4F5
:102C9000CDAEAAF1100ABAF1100F2D992C9B38AACB
:102CA000E7DC0A9C35468C4616460133D444072B94
:102CB000CDF8B4C02C9386E8200400F3378308369F
:102CC000099DED0500F126822C9B37600133A44459
:102CD000072BCDF8B4C074602C9300F31183083631
:102CE000099C630749D50F9D0B982C1A002C44DDD5
:102CF000102C2C9BDFF81CA02BDD574610256246BC
:102D0000DDF83080DDF834A00BE000BF3C64000843
:102D1000086400085C640008103C102C06F10806EA
:102D200015DD01331032072B2D922C93376075601F
:102D3000F2DD504641462BAA02F0F6FC00287FF453
:102D400075AE103C102C2D9A2C9B38AEE9DC9446C5
:102D5000BA460133A444072BCDF8B4C02C93C6F86F
:102D600000A0746009DD0D980C992BAA02F0DCFC20
:102D700000287FF45BAEDDF8B4C00E9C0B980F9D6D
:102D8000A842ACBF241864190E94BCF1000F40F0A7
:102D9000C38200232C9338AE56E599F80080002AB0
:102DA0007FF488AD202285E5099D45F00105099550
:102DB00099F800807EE5099D45F08005099599F810
:102DC000008077E50024A8F130030F94214619F81C
:102DD000018B01EB810103EB4101A8F13003092BC9
:102DE000F5D90F9168E5DDF824C08DF88F204CF0FF
:102DF000100CCDF824C0099CA30640F1B280109DB0
:102E0000E91D21F00701D1E9002308311091144692
:102E10001D46002A73F10000C0F28B839DF88FA03D
:102E2000012359E6099DB74C8DF88F20AF061A94FF
:102E30003FF52FAE099DED0640F15D84DDF840C001
:102E4000DCF800400CF1040CCDF840C000252BE666
:102E5000DDF824C08DF88F201CF0200F00F03D8499
:102E6000109C21680E9CE5172B46109D22460435C8
:102E70001095C1E90023E7E4109C27684FF0000A91
:102E80008DF88FA0251D002F00F0F5850A9C002CE1
:102E90003846C0F2A7855146224602F001F80028C4
:102EA00000F01F860A9C1095C01BA042B8BF0446C4
:102EB00024EAE475CDF828A0CDF850A00B959DF834
:102EC0008FA032E6DDF824C04CF0400CCDF824C0D1
:102ED00099F80080EEE499F80080B8F16C0F4B4649
:102EE00000F08B84099D45F010050995E2E4109CE3
:102EF000109D24680F94002C05F10403FFF67CADAF
:102F0000109399F80080D5E4109ADDF824C07E482B
:102F100014681A903023151D4FF078084CF0020CFD
:102F20008DF890301095CDF824C000258DF8918053
:102F30000223CDE5109A109D12688DF8B820002369
:102F4000012404359A460B9410958DF88F300A931E
:102F500014932EAFEFE5099C8DF88F20A3063FF563
:102F60004EAFDDF824C01CF0100F40F0D282099C57
:102F7000670640F1CE82DDF840C0BCF900400CF19C
:102F8000040CE51722462B46CDF840C041E799F8DE
:102F900000802B228EE4099D45F00805099599F8DB
:102FA000008087E4109D099C8DF88F20EB1D25077C
:102FB00023F0070340F18A83D3E90045CDE91645A4
:102FC00003F1080CCDF840C0DDE9160102F054FB16
:102FD0000128DDE9160140F05F8300220023FFF79E
:102FE0000DF9002840F06D859DF88FA003250B9505
:102FF000099D464F464B25F0800500240995002584
:103000000A94B8F1470FD8BF1F46032414958CE5E6
:10301000DDF824C04CF0200CCDF824C099F80080D5
:1030200048E4109CE31D23F0070303F10805109505
:10303000D3E9004500234BE5109DEB1D23F007036A
:1030400003F1080CD3E90045CDF840C001233FE56A
:103050008DF88F20B8F1000F3FF4E1AC00234FF062
:10306000010C9A46CDF82CC08DF8B8808DF88F30C1
:103070000A93149364462EAF5DE5DDF8B4C0B5E560
:10308000012B00F0EC80022B0DF1DF0318D1DDF8ED
:1030900068C0194604F00F00220942EA05720F4683
:1030A0002B091CF80010397052EA030014461D4623
:1030B00007F1FF31EED1089DCDE91E23EC1B2BE576
:1030C000E00840EA457004F00702E908303250EAAF
:1030D000010C1F461A7004460D4603F1FF33EFD171
:1030E000099CCDE91C01E007394640F1C180302A36
:1030F00000F0BE80089D1F463023EC1B01F8013C08
:103100000AE500BF286400083C6400081C6400084D
:1031100018640008B8F1650F40F3AD80DDE91601D1
:1031200000220023CDF81CC0FFF75EF8DDF81CC0BC
:10313000002800F026812C9BAA4A326001330CF152
:10314000010C0122072BCDF8B4C02C93726000F360
:10315000F7820836259B119CA34203DB099DEC07EF
:103160007FF5BEAD2C9B189D159C34600133AC449B
:10317000072BCDF8B4C075602C9300F34883083654
:10318000119D6C1E002C7FF7ABAD102C2C9B964D27
:1031900040F3978110276246DDF83480DDF830A0D7
:1031A00004E00836103C102C40F38A8101331032C1
:1031B000072B2D922C9386E8A000F2DD4046514665
:1031C0002BAA02F0B1FA00287FF430AC2D9A2C9B88
:1031D00038AEE7E70F9D0B98C0EB050ABAF1000F78
:1031E0007FF72CADBAF1100F2C9B7F4D2BDD129485
:1031F00032464FF0100B2E4661460D9C0C9D06E0AA
:10320000AAF1100ABAF1100F02F1080217DD01331A
:103210001031072B2D912C9382E84008F0DD2046D9
:1032200029462BAA02F080FA00287FF4FFABAAF10E
:10323000100ABAF1100F2D992C9B38AAE7DC129CCA
:1032400035468C4616460133D444072BCDF8B4C01E
:103250002C9386E8200400F312820836EEE4002D59
:1032600008BF0A2C80F0388148AF303407F8414D50
:10327000089DEC1B50E4119C012C2C9C40F3D58143
:1032800001340CF101030122072C37602D932C949B
:10329000726000F3DB810836DDF86080159D3560D3
:1032A00001349844189DCDF8B480072C2C94756097
:1032B00000F3D8810836DDE9160100220023FEF76D
:1032C00093FF119D002840F0B9806B1E0134013737
:1032D0009844072C2C94CDF8B4803760736000F3C9
:1032E000E2800836DDF864C0199D0134C44427AB80
:1032F000072CCDF8B4C02C9486E828007FF7EFACFB
:103300000D980C992BAA02F00FFA00287FF48EABCF
:10331000DDF8B4C038AEE3E40D980C992BAA02F0A6
:1033200003FA00283FF435ADFFF780BB0D980C99E8
:103330002BAA02F0F9F900287FF478ABDDF8B4C0CD
:1033400038AEBDE40D980C992BAA02F0EDF90028D7
:103350007FF46CABDDF8B4C038AE5AE40D980C992C
:103360002BAA02F0E1F900287FF460ABDDF8B4C0CD
:1033700038AE5FE40A9C38AFFFF7CEBB0223FFF7FD
:10338000A7BB259B002B40F3E781119C149DDDF822
:1033900044A0AC42A8BF2C46002CBA440BDD2C9BA9
:1033A00037600133A444072BCDF8B4C074602C936C
:1033B00000F328830836149D24EAE4742C1B002CA7
:1033C00040F3DB80102C2C9B074D40F3AD810A9716
:1033D0004FF010082F4662462546DDF834B00C9CAD
:1033E00009E000BF58640008086400080836103D72
:1033F000102D40F3958101331032072B2D922C9321
:1034000086E88001F2DD584621462BAA02F08CF9AD
:1034100000287FF40BAB2D9A2C9B38AEE7E70D9874
:103420000C992BAA02F080F900287FF4FFAA9DF8DE
:103430008FA0DDF8B4C038AEFFF7D8BB6F1E002FE9
:103440007FF750AF102FB34D23DD43464FF0100AE6
:10345000DDF83480DDF830B004E0103F102F06F1C5
:10346000080615DD01341033072C2D932C9486E8C3
:103470002004F2DD404659462BAA02F055F90028F7
:103480007FF4D4AA103F102F2D9B2C9C38AEE9DC82
:1034900098460134B844072CCDF8B4802C9486E8C3
:1034A000A0007FF71EAF0D980C992BAA02F03CF9F3
:1034B00000287FF4BBAADDF8B4802C9C38AE11E75D
:1034C00094460133A444072BCDF8B4C02C93356047
:1034D00074607FF704AC13E70DF1DF0B204629463B
:1034E0000A22002302F088FC30328BF800202046AC
:1034F00029460A22002302F07FFC04460D4654EAC6
:10350000050C5F460BF1FF3BE8D1089DEC1BFFF774
:1035100003BB109DDDF840C02C68E51722462B4602
:103520000CF1040C002A73F10000CDF840C0BFF686
:1035300075AC4FF02D0A644265EB45058DF88FA000
:103540000123FFF7C9BA109D2C680435109500259A
:10355000FFF7BEBA109D2C68043510950123002595
:10356000FFF7B6BA0D980C992BAA02F0DDF80028E7
:103570007FF45CAADDF8B4C038AE149D259C2F44BE
:10358000119DAC4242DB099DE9073FD41198C7EB7E
:103590000A05041BAC42B8BF2546002D0BDD2C9B51
:1035A00037600133AC44072BCDF8B4C075602C9361
:1035B00000F35282083625EAE575641B002C7FF77C
:1035C0008FAB102C2C9B534D7FF77BAF102762469F
:1035D000DDF83480DDF830A004E00836103C102C13
:1035E0007FF76EAF01331032072B2D922C9386E8B4
:1035F000A000F2DD404651462BAA02F095F80028C3
:103600007FF414AA2D9A2C9B38AEE7E72C9B159DCE
:103610003560189D75600133AC44072BCDF8B4C0FC
:103620002C9300F3FB810836B0E7099DEA073FF5CC
:1036300027AE01340CF101080123072CCDF8B4802A
:103640002C94376073607FF74CAE2CE70D980C9983
:103650002BAA02F069F800287FF4E8A92D9B2C9C86
:1036600038AE19E60D980C992BAA02F05DF80028E7
:103670007FF4DCA9DDF8B4802C9C38AE1BE60D98F5
:103680000C992BAA02F050F800287FF4CFA9DDF89E
:10369000B4C038AEFFF7D2BA01F0EEFF002840F018
:1036A000C280099C1C4F1D4B9DF88FA00A904FF0C3
:1036B000030C24F080040994CDF82CC01490B8F1C8
:1036C000470FD8BF1F466446FFF72FBAD3E900451E
:1036D0000833CDE91645109376E4DDF824C01CF0DC
:1036E000100F00F05581109C0E9D23680434109437
:1036F0001D60FFF7A9B8099C640640F14281DDF81E
:1037000040C0BCF800400CF1040C0025CDF840C0CE
:10371000FFF7CAB9086400082464000820640008A0
:103720002C463D460A9F94460133A444072BCDF80E
:10373000B4C02C93356074603FF714AF08361CE7B3
:103740000D980C992BAA01F0EFFF00287FF46EA9C9
:10375000DDF8B4C038AEFDE42C9AB74931600132CF
:103760000CF1010C0121072ACDF8B4C02C92716034
:1037700000F3F78008361C462CB9119D1DB9099D30
:10378000E8077FF5ADAA2C9B1899159D356001338C
:103790006144189D2D91072B75602C9300F3DE81F9
:1037A00006F108026442002C40F30B81102CA34D5B
:1037B00040F34881A34610260C46DDF83480DDF83E
:1037C00030A006E00832ABF1100BBBF1100F40F354
:1037D000378101331034072B2D942C9382E860003D
:1037E000F0DD404651462BAA01F09EFF00287FF4F1
:1037F0001DA92D9C2C9B38AAE5E7099C93F8018014
:1038000044F0200409F101090994FFF753B80D9819
:103810000C992BAA01F088FF00287FF407A9DDF896
:10382000B4C038AEACE40A9D013528F0200A00F09F
:10383000A580BAF1470F04D10A9D002D08BF0125CC
:103840000A95DDE91623DDF824C0002B4CF4807CBA
:10385000CDF848C0C0F29C81DDE91645CDE9204590
:103860004FF0000BB8F1660F00F09B81B8F1460FE6
:1038700000F0A981BAF1450F0ABF0A9C0A9D651C98
:10388000022025A926AA29AB8DE8210003920493E2
:1038900002910D98DDE9202300F0C6FAB8F1670F18
:1038A000074602D0B8F1470F05D1DDF824C01CF05F
:1038B000010F00F09C81BAF1460F07EB050400F000
:1038C0001C81DDE9200100220023FEF78DFC002889
:1038D00040F00581299B9C4206D930215A1C29922F
:1038E0001970299B9C42F9D8DB1BBAF1470F119341
:1038F00000F0ED80B8F1650F40F3F281B8F1660F8A
:1039000000F06881259C1494119C149DAC4200F336
:103910003281DDF824C01CF0010F40F0AD8125EAB2
:10392000E5732C464FF06708BBF1000F40F0B28002
:10393000129D0B930995CDF828B09DF88FA0FFF745
:10394000F4B80D984021FEF781FC2060206100282A
:1039500000F0BF81DDF830C04023CCF81430FEF712
:1039600063BF0D980C992BAA01F0DEFE00287FF4AE
:103970005DA8259CDDF8B4C038AEFDE606240A94A7
:103980005FE7109D2C68043510950025FFF78CB873
:10399000DDF824C01CF0400F00F08780109C0E9DC5
:1039A0002368043410941D80FEF74EBF0D980C99C7
:1039B0002BAA01F0B9FE00287FF438A82D992C9B82
:1039C00038AADDF844C0119C176001338C44072BE2
:1039D000CDF8B4C02C9354603FF792AC02F10806C6
:1039E000FFF77EB9CDF828A001F06EFE109520EA11
:1039F000E07C0A9DCDF82CC0044614959DF88FA05C
:103A0000FFF793B80D980C992BAA01F08DFE0028B2
:103A10007FF40CA8DDF8B4C038AECCE40D980C9956
:103A20002BAA01F081FE00287FF400A8259CDDF878
:103A3000B4C038AEAAE500BF5864000808640008A6
:103A400021465C4601332144072B2D912C931560B0
:103A50005460ABDC0832B4E70D980C992BAA01F046
:103A600063FE00287EF4E2AF259C1199DDF8B4C016
:103A70000C1B38AE9FE50A9C1497062C28BF062421
:103A800024EAE47CBA460A971095CDF82CC0974FEB
:103A9000FFF74BB8129D09954FF02D0A00250B93A7
:103AA0008DF88FA00A95FFF743B8DDF840C00E9C53
:103AB000DCF800300CF1040CCDF840C01C60FEF7BF
:103AC000C3BE4FF02D0A8DF88FA0FFF78FBA259B4C
:103AD000DC1C19DB0A9C9C4216DB149314E723467A
:103AE00002E724EAE47CCDF82CC00A9C10950A90E9
:103AF00014909DF88FA0FFF718B83B78302B00F09A
:103B0000AD80259D2C44DCE6A8F10208013B002B8A
:103B10002593BABF5B422D222B22092B8DF89C8066
:103B20008DF89D2065DC303330228DF89F308DF884
:103B30009E2028AB119D119C27AA9A1A012D19923B
:103B4000144440F3B7800134002524EAE47314954B
:103B5000EAE6002481460A94FEF7AEBE0D980C9961
:103B60002BAA01F0E1FD00287EF460AF259C2D9981
:103B70002C9B38AA16E6149C119D002CD4BFC4F1CE
:103B8000020401242C4424EAE4734FF06708CBE6D6
:103B900017991698209001F1004121914FF02D0BBB
:103BA00060E60A9D0195032025A926AA29AB00906D
:103BB0000392049302910D98DDE9202300F034F97B
:103BC0000A9D074677E60A9C0194032025A926AAA8
:103BD00029ABECE7259D1495002D0A9C63DDB4BB51
:103BE000099DE80733D4149C24EAE4739CE6299BDE
:103BF0007AE60DF1AA003E4DDA1785FB0351C2EBC0
:103C0000A10101EB81040246A3EB440303F1300060
:103C1000092910700B4602F1FF30ECDC01F1300392
:103C20000DF1AB04D9B2844202F8011C5AD90DF14E
:103C30009D00134601E013F8011BA34200F8011F89
:103C4000F9D10DF5907CC2EB4C03F63B72E70A9D6F
:103C50006C1C149D2C4424EAE47365E6DDE9200124
:103C600000220023FEF7C0FA00287FF44AAFC5F116
:103C7000010525952C4424E6149D6C1C24EAE4736C
:103C80004FF0670850E6109DDDF840C02D6899F8A8
:103C900001800A950CF10403002D10938146BEF6B5
:103CA00009AEFEF704BE7CB9099DE9070CD40123D7
:103CB0001C4639E6DDF824C01CF001037FF443AF55
:103CC000149324EAE4732FE60A9DAC1C24EAE473FF
:103CD0002AE60D9D0C232B604FF0FF30FEF7AEBEA1
:103CE000259B13E70DF19E0324E700BF50640008F5
:103CF000676666662DE9F04F03690D699D4283B0E2
:103D0000834600F38B80013D01F1140400F1140A95
:103D100054F825205AF825300132B3FBF2F8AA00F6
:103D2000914600925244A1440192B8F1000F3DD057
:103D30004FF0000E7046224653468C4652F8046BF4
:103D40001968B7B2360C07FB08EE06FB08F606EB5F
:103D50001E461FFA8EF7C71BB0B217FA81F7C0EBE9
:103D6000114000EB2740BFB247EA0047914543F8B6
:103D7000047B4FEA20404FEA164EDFD2009A5AF8F1
:103D80000230614693B9019A131F9A450CD252F83A
:103D9000043C4BB9A2F1080302E01A68043B1AB9CB
:103DA0009A4505F1FF35F8D3CBF81050584601F08D
:103DB00077FB00282EDB08F101085346002254F857
:103DC000046B1868B1B2521A360C12FA80F1C6EBC5
:103DD000104202EB214289B241EA0241A14543F877
:103DE000041B4FEA2242EAD25AF825200AEB850347
:103DF00082B91A1F92450BD253F8042C42B9083BE2
:103E000002E01A68043B1AB99A4505F1FF35F8D368
:103E1000CBF81050404603B0BDE8F08F002003B04F
:103E2000BDE8F08F000000002DE9F04F016C9BB061
:103E30000446279D92469B4649B1436C4B60012244
:103E400002FA03F38B6001F033F900232364BBF122
:103E5000000FD94633DB00232B60A54B1A4609EA35
:103E60000303934214D05046594600220023FEF724
:103E7000BBF9804648B3269E289D01233360002D60
:103E800000F0C9809B48286001381BB0BDE8F08F66
:103E9000269D42F20F732B60BAF1000F00F0A48050
:103EA0009548289E002EF0D0C378002B00F0B580F6
:103EB00000F10803289D2B601BB0BDE8F08F0123A3
:103EC0002BF000492B60CB46C7E719AA18AB8DE849
:103ED0000C00204652465B4601F070FB5FEA195524
:103EE0000A9040F08A80189F199D6FF482633D44C8
:103EF0009D42C0F294821F3305F212425B1B09FA05
:103F000003F32AFA02F243EA0200FDF78FFE0126CC
:103F1000013DB846A1F1F87116960022774BFDF7E6
:103F200047FD6DA3D3E90023FDF7F6FE6CA3D3E9AB
:103F30000023FDF73FFD064628460F46FDF786FEA7
:103F400069A3D3E90023FDF7E7FE02460B4630469E
:103F50003946FDF72FFD06460F4601F025FF39468D
:103F60000790002230460023FEF748F9002840F071
:103F70002882079E162E00F22182614B03EBC603B6
:103F8000D3E9000152465B46FEF756F9002800F0DF
:103F90004B82013E079600260E96C5EB0805013DB3
:103FA000069500F1258200250895079E002EC0F297
:103FB0001682069D0D963544002606950C96249D86
:103FC000092D2CD8052DC4BF043D2495249EA6F1AF
:103FD0000203CCBF00250125032B22D8DFE813F014
:103FE000B7039E02C0039A04464A434BC9F3130029
:103FF00000280CBF1046184653E7CBF3130343F0D9
:104000007F51CDF858805046A5F2FF3541F440115C
:10401000DDF8608081E73C4837E7C31C4AE70025AC
:104020002495002565642946204601F01BF84FF0D1
:10403000FF390126099025952064CDF83C900B9618
:10404000199B002BC0F2D280079E0E2E00F3CE806B
:104050002B4B03EBC603D3E90001CDE904012599FD
:104060000029C0F28083DDE9042359465046FDF75C
:104070007DFF01F099FE0546FDF7E8FDDDE904232B
:10408000FDF74AFE02460B4650465946FDF790FCA6
:10409000099A05F13003B9F1010F06460F46137076
:1040A00002F1010B64D00022184BFDF735FE00220F
:1040B000002306460F46FEF797F8002840F081805F
:1040C000DDF82480099D0394C844DDE904AB05F1C3
:1040D000020928E0AFF3008061436F63A787D23FF6
:1040E000B3C8608B288AC63FFB799F501344D33FE7
:1040F0000000F07F59640008786400080000F83F71
:10410000906400086C6400085864000800002440B3
:10411000FDF702FE0022002306460F46FEF764F874
:10412000002840F0C18352465B4630463946FDF7D1
:104130001DFF01F039FE0546FDF788FD52465B463E
:10414000FDF7EAFD02460B4630463946FDF730FCE6
:1041500005F1300EC14509F801EC4C4606460F4604
:104160004FF00002A74B09F10109D1D1A346039CEE
:1041700032463B4630463946FDF71CFC06460F46A4
:104180003246DDE904013B46FEF738F840B9DDE987
:10419000040132463B46FEF727F890B1EB0710D5F5
:1041A0001BF8015C099A05E09A4200F0288413F894
:1041B000015C9B46392D0BF1FF33F5D06A1CD2B25E
:1041C0001A7020460A9900F073FF079E269D731C03
:1041D000289E00228BF800202B60002E00F0258303
:1041E0000998C6F800B01BB0BDE8F08F0B9D002DFC
:1041F00000F00381249E012E40F3DC820C9E09F125
:10420000FF37BE42C0F28983F71BB9F1000FC0F23D
:104210008684089D4B46089E1E440896069E2046AE
:104220001E440121069600F0E7FF064665B1069898
:10423000002809DD03460899AB42A8BF2B46C91ADE
:10424000C01A0891ED1A06900C9A002A1DDD0B9BEE
:10425000002B00F05883002F11DD31463A462046EE
:1042600001F072F8064631460A9A204600F0CEFF69
:104270000A998046204600F01BFFCDF82880DDF823
:1042800030E0BEEB070240F08F822046012100F0B3
:10429000B3FF80460D98002805DD414620460D9A63
:1042A00001F052F880462499012940F3C182002789
:1042B0000D98002840F0AF820120069B034413F0C4
:1042C0001F0300F0A180C3F12002042A40F3B5844B
:1042D0000899069AC3F11C0319441A4408911D4415
:1042E00006920899002905DD0A99089A204601F0EE
:1042F00079F80A90069A002A04DD4146204601F02A
:1043000071F880460E9B002B40F06A82B9F1000FD5
:1043100040F3A6820B98002840F088800B9D0A9FEE
:10432000DDF824B006E0394620460A22002300F0DA
:10433000C9FE074638464146FFF7DCFC30300BF833
:1043400005000135A945EEDCDDF824B00A97824668
:10435000B9F1010FACBFCB440BF1010B00250A9959
:104360000122204601F03EF841460A9001F098F8FB
:10437000002840F309831BF8012C099905E09942B4
:1043800000F08B8213F8012C9B46392A0BF1FF3386
:10439000F5D001321A704146204600F089FE002E09
:1043A0003FF40FAF2DB1B54203D02946204600F0AF
:1043B0007FFE3146204600F07BFE02E701260E9686
:1043C000EBE50798FDF742FC32463B46FDF70CFF54
:1043D00000287FF4CEAD079E013E0796C9E5079EF3
:1043E000089DAD1B0895754200260C950D96E6E5D7
:1043F0006D42002608950696D7E50C9F089D0B9EFA
:1044000014E700BF000024401C23DDF820E00698DC
:104410009E441844CDF820E01D44069061E7A7486B
:10442000401B0AFA00F070E50E90B6E5002D05DDA0
:1044300031462A46204600F0D5FF0646002F40F0C0
:10444000E8823746099D09984D4408950AF0010510
:104450000B95DDF82890451C0AE000F033FE394644
:1044600006460A222046002300F02CFE07460135AE
:1044700041464846FFF73EFC31468346484601F038
:104480000FF8414603903A46204601F02DF8C268E5
:10449000691E03460BF1300A0691002A40F0938111
:1044A00019464846029300F0FBFF029B024619465C
:1044B0002046029200F0FCFD029A2AB9249B1BB907
:1044C0000B98002800F09183039B002BC0F23482EC
:1044D00005D1249818B90B99002900F02D82002AE3
:1044E00000F3AB82DDF820E005F801AC7545AB4682
:1044F00000F0B38249460A220023204600F0E2FD84
:10450000BE428146314620464FF00A024FF000037A
:10451000A3D100F0D7FD06460746A8E700260B9674
:10452000079EDDF894E0B6440EF10109B9F1000FE1
:10453000CDF83CE04E4640F350810021172E6164D7
:104540000AD9012204235B0003F11400B042114692
:1045500002F10102F7D96164204600F083FD0E2EBE
:10456000099020643FF66CAD002D3FF469AD079DC6
:10457000002DCDE912AB40F31B82514B05F00F0229
:1045800003EBC2032D11D3E90067EB0640F1CD81A7
:104590004C4B50465946D3E90823FDF7E7FCCDE9DB
:1045A000100105F00F054FF003088DB1DFF814A1DD
:1045B00030463946EE0705D5DAE9002308F101084F
:1045C000FDF7AAFB6D100AF1080AF3D106460F4663
:1045D000DDE9100132463B46FDF7C8FC82468B46BA
:1045E0000E9D45B1504659460022374BFDF706FE59
:1045F000002840F0A9824046FDF728FB52465B4662
:10460000FDF78AFB0022314BFDF7D4F90646A1F1F4
:104610005077B9F1000F00F05A81079D1795C846F1
:104620000B9D002D00F02282254B294903EBC80386
:1046300053E902230020FDF799FC32463B46FDF783
:10464000B7F9CDE910015946504601F0ADFB0546DA
:10465000FDF7FCFA02460B4650465946FDF7A8F90D
:104660003035099ECDE90401EDB23570DDE9100168
:10467000DDE9042306F1010BFDF7DEFD002840F023
:10468000A982DDE9042300200F49FDF791F90246D4
:104690000B46DDE91001FDF7CFFD002840F0A082B8
:1046A000B8F1010F40F38081B044CDF85090A2469C
:1046B000C146DDE90467DDE9104519E0EEFBFFFFC7
:1046C00090640008586500080000F03F00001C409E
:1046D0000000E03F0020A849FDF76AF922462B467A
:1046E000FDF78CFD002840F07982CB4500F0598120
:1046F000204629460022A14BFDF70EFB00229F4BCE
:1047000004460D4630463946FDF706FB0F46064681
:1047100001F04AFB8046FDF799FA02460B46304607
:104720003946FDF745F908F130085FFA88F8224666
:104730002B460BF8018B06460F46FDF75FFD324610
:104740003B460028C6D0179E0796544639E50026FA
:104750000B96259800283CDD06460F908146ECE636
:1047600001260B96F5E7B9F1000F3FF77CAC40F05E
:10477000C6800022824BDDE90401FDF7CDFA5246E6
:104780005B46FDF74FFDC8464E4600287CD0259D70
:10479000DDF824B0ED4307954146204600F088FC43
:1047A000002E7FF406AE0CE50A99204600F0CCFD01
:1047B0000A906AE5169D002D00F0B78103F233439D
:1047C0000C9F089D27E50146204600F071FC012260
:1047D0007AE6012625960F96B14600216164BBE674
:1047E0000A98414600F05CFE0028BFF68FADDDF868
:1047F0001CE00A990EF1FF3E20460A220023CDF864
:104800001CE000F05FFC0A900B98002840F0078243
:10481000DDF83C907AE5D8F8103008EB830318698E
:1048200000F09CFCC0F1200047E50998FFF72DBB84
:10483000BAF1000F7FF43BADCBF31303002B40F034
:104840007B812BF000473F0D3F05002F3FF430AD3B
:10485000089A069B0132013308920693012727E547
:10486000249902297FF756ADB9F1000F8FD1414647
:104870004B460522204600F025FC804641460A981A
:1048800000F00EFE002882DD079D01350795099D89
:1048900031232B7005F1010B7EE70798099931232D
:1048A000013007900B7076E5A346039C89E44046EF
:1048B000FDF7CCF902460B4650465946FDF72CFA57
:1048C0000022304BFDF776F80646A1F150775046AE
:1048D000594600222A4BFDF76BF832463B4682468A
:1048E0008B46FDF7A9FC002840F0BC80324607F15A
:1048F000004350465946FDF781FC002854D04FF044
:104900000008464643E70A990C9A204600F01CFD31
:104910000A90BAE401260B9602E60C9D0D9E0C97B8
:104920007B1B1E440D9600276FE4DDE912014FF05A
:104930000208CDE9100138E6002ACDF82890D946C2
:1049400011DD0A990122204600F04CFD41460A90F3
:1049500000F0A6FD002840F35B81BAF1390F00F0AA
:104960001A8109F1310A069B354683F800A003F14C
:10497000010B3E460FE500BF0000F03F0000244061
:104980000000144000001C4003D11AF0010F7FF416
:10499000F2AC5B469B46013B1BF8012C302AF9D058
:1049A000F9E4DDF850905446DDE912ABFFF748BB5F
:1049B000079E7542002D00F0C280A34B05F00F0248
:1049C00003EBC203D3E90023DDE91201FDF7A4F9EB
:1049D0002D1182468B4600F02D819C4E4FF002082F
:1049E000EA0705D5D6E9002308F10108FDF794F997
:1049F0006D1006F10806F3D182468B46F0E5079E5E
:104A0000099D30222A700136312207961A70FFF76D
:104A1000D8BB7168204600F025FB33699A1C054617
:104A2000920006F10C010C3000F082FA2046294673
:104A3000012200F0D7FC074604E5BAF1390FCDF8A2
:104A4000289000F0A880069D0AF101032B703546DE
:104A5000069E06F1010B3E469DE43546CDF82890B2
:104A60003E467CE44FF0000846460DE7764908F1E3
:104A7000FF3501EBC50132463B46D1E900011095F7
:104A8000FDF74AF9CDE914015946504601F08CF979
:104A90000546FDF7DBF802460B4650465946FCF743
:104AA00087FFDDF824E03035B8F1010F06460F46E8
:104AB0008EF800500EF1010B1ED0099D6B1E03EB0A
:104AC000080A0022624BFDF727F90F46064601F05F
:104AD0006BF98046FDF7BAF808F1300802460B463C
:104AE00030463946FCF764FF05F8018F5545E8D19B
:104AF000109D06460F46AB440022564BDDE91401DB
:104B0000FCF758FF32463B46FDF778FB00284DD0B6
:104B1000179E07961BF8015C099AFFF74BBB089E8E
:104B20000023C9EB0605FFF776BB189B0C9F089D79
:104B3000C3F13603FFF76FBB5746FFF7B9BBDDE99B
:104B400012AB4FF002084BE5B9F1000F3FF4AFAEE6
:104B50000F9E002E7FF728AF00223D4B504659464E
:104B6000FDF7DAF8824608F101008B46FDF76EF892
:104B700002460B4650465946FDF7CEF80022364B0A
:104B8000FCF718FF079DDDF83C80013D0646A1F1CA
:104B90005077179544E53546069B069E09993922BC
:104BA000327003F1010B3E46FFF7EFBBDDE9142342
:104BB00000202849FCF7FCFE32463B46FDF73CFB53
:104BC00000283FF4F1AE5B469B46013B1BF8012CED
:104BD000302AF9D0179D0795FFF7F3BA454654469A
:104BE000179E0796099AFFF7E5BABAF1390FCDF883
:104BF0002890D0D0039B3546002B069EC8BF0BF1F2
:104C0000310A86F800A006F1010B3E46FFF7C3BB50
:104C10007FF4A9AE1AF0010F3FF4A5AE9DE6314630
:104C200020460A220023DDF83C9000F04BFA0646AD
:104C3000FFF76CBB4FF00208D2E43FF452ABC3F174
:104C40003C03FFF7E2BB00BF906400085865000812
:104C5000000024400000E03F00001C40AFF3008053
:104C6000F8B5234D0F460446FDF78CFDAB685E6832
:104C700026F00306F11B01F6EF7121F47F6121F0AC
:104C80000F01A1F58057B7F5805F07DB20460021B3
:104C9000FDF77CFDAB683344984204D02046FDF715
:104CA00073FD0020F8BD20467942FDF76FFD01300D
:104CB0000DD0104BAA681968F61B46F00106204675
:104CC000C91B56601960FDF75FFD0120F8BD204645
:104CD0000021FDF75BFDAB68C21A0F2ADEDD064D31
:104CE00004492D6842F00102401B5A600860D5E774
:104CF00034000020F0080020400400202DE9F0419D
:104D00000D460646002955D0FDF73CFD55F8041C1C
:104D1000DFF874C121F00103A5F10804E218DCF802
:104D200008005768904227F0030769D011F001018D
:104D3000576032D00021D0194068C00706D43B44E8
:104D4000906800294ED0D268C260906043F00102A2
:104D50006260E350E1B9B3F5007F2DD35A0A042A0B
:104D60006AD89809383041000CEB810C4649DCF8D0
:104D70000820624566D0516821F003018B4202D2BF
:104D800092689445F7D1D368E360A2609C60D460D8
:104D90003046BDE8F041FDF7F7BC55F8085C641BF0
:104DA0000CF10808A06840452B4443D0E568C56075
:104DB000A860C0E7BDE8F081DB080CEBC302012569
:104DC000DCF804009168A1609B1005FA03F3184316
:104DD000E260CCF8040094603046CC60BDE8F0415D
:104DE000FDF7D2BC294DA842ADD143F00102CCF869
:104DF0001440CCF81040E060A0606260E350C7E768
:104E00001F44CB0707D455F8083CE41A1F44A26896
:104E1000E368D3609A601E4B1B6847F001029F4213
:104E20006260CCF80840B3D31A4B30461968FFF7DC
:104E300017FFADE701217EE7142A0CD802F15B00D1
:104E4000410091E74B688010012505FA00F003430B
:104E50004B60134698E7542A03D8180B6E30410074
:104E600082E7B2F5AA7F03D8D80B773041007BE701
:104E700040F254518A4203D8980C7C30410073E7C9
:104E8000FC217E2070E700BF340000203C000020A1
:104E90003C040020EC080020004870477408002003
:104EA000830770B4C9B23FD0541E2AB303788B4233
:104EB00023D0431C04E0FCB104788C421DD014467E
:104EC00013F0030F184604F1FF3203F10103F2D18E
:104ED000032C14D8651E4CB303788B420DD0421CB2
:104EE000002302E004788C4207D0AB42104603F165
:104EF000010302F10102F5D1002070BC704741EAC4
:104F00000126034646EA0646184604330268724004
:104F1000A2F1013525EA020212F0803FDAD1043C09
:104F2000032C1846F0D8D5E71446D1E72046E4E72D
:104F3000844641EA000313F003036DD1403A41D3A4
:104F400051F8043B40F8043B51F8043B40F8043B63
:104F500051F8043B40F8043B51F8043B40F8043B53
:104F600051F8043B40F8043B51F8043B40F8043B43
:104F700051F8043B40F8043B51F8043B40F8043B33
:104F800051F8043B40F8043B51F8043B40F8043B23
:104F900051F8043B40F8043B51F8043B40F8043B13
:104FA00051F8043B40F8043B51F8043B40F8043B03
:104FB00051F8043B40F8043B51F8043B40F8043BF3
:104FC000403ABDD2303211D351F8043B40F8043B93
:104FD00051F8043B40F8043B51F8043B40F8043BD3
:104FE00051F8043B40F8043B103AEDD20C3205D3A3
:104FF00051F8043B40F8043B043AF9D2043208D09B
:10500000D2071CBF11F8013B00F8013B01D30B880C
:1050100003806046704700BF082A13D38B078DD0EA
:1050200010F003038AD0C3F10403D21ADB071CBFBC
:1050300011F8013B00F8013B80D331F8023B20F826
:10504000023B7BE7043AD9D3013A11F8013B00F85F
:10505000013BF9D20B7803704B7843708B788370E7
:1050600060467047C26C70B505460C464AB152F8AE
:10507000240080B1016842F8241000220261C2605D
:1050800070BD2122042100F0CFFBE8640246002815
:10509000EDD1002070BD012101FA04F6721D2846F1
:1050A000920000F0C1FB0028F3D044608660E4E782
:1050B00031B1C36C4A6853F82200086043F82210EB
:1050C000704700BF2DE9F047D1F8108082B08946C3
:1050D000824601F1140500242F68BEB23F0C02FB8A
:1050E000063602FB07F303EB16430134B6B206EBB8
:1050F0000346A04545F8046B4FEA1343ECDC53B17B
:10510000D9F8082090450ADA09EB880108F1010274
:105110004B61C9F81020484602B0BDE8F087D9F8C5
:105120000410019301315046FFF79CFFD9F810207D
:10513000023209F10C01044692000C30FFF7F8FE30
:10514000DAF84C20D9F80410019B52F82100C9F874
:10515000000042F82190A146D6E700BF030C1B04D3
:10516000B3B90004102310F07F4F04BF00020833CE
:1051700010F0704F04BF0001043310F0404F04BF23
:1051800080000233002807DB420003D42020704750
:105190000023E8E7581C704718467047036813F06F
:1051A000070207D0D90720D49A0720D49B080360B0
:1051B0000220704799B209B91B0C102213F0FF0F9F
:1051C00004BF1B0A0832190704BF1B0904329907E0
:1051D00004BF9B080232D90704D45B0801D1202008
:1051E00070470132036010467047002070475B082B
:1051F00003600120704700BF10B50C460121FFF786
:1052000031FF01224461026110BD00BF2DE9F04F62
:105210000D69D2F810904D4585B00C46924604DADF
:105220002A4654464D468A469146A368616805EB76
:1052300009079F42C8BF0131FFF714FF00F11406B0
:1052400006EB87084645019005D23346002043F817
:10525000040B9845FBD80AF1140C0CEB89091434A3
:10526000CC45009404EB85055BD2CDF8088003970C
:10527000C8465CF8043B9CB224B3009A33464FF016
:10528000000900E00B4652F8047B19681FFA87FBFF
:105290001FFA81FA380C090C04FB0BA7B94404FB74
:1052A000001000EB194019461FFA89F949EA004736
:1052B00095424FEA104941F8047BE3D8C3F80490C3
:1052C0005CF8043C5FEA134924D0D6F800A0009BA8
:1052D000504631464FF0000B00E011461A88000C92
:1052E00009FB020083441FFA8AFA0A464AEA0B4085
:1052F00042F8040B53F8047B48684FEA174A84B21B
:1053000009FB0A4A0AEB1B4A9D424FEA1A4BE4D8B2
:10531000C1F804A0E04506F10406AAD8DDF808802B
:10532000039F002F0ADD58F8043CA8F104081BB1C4
:1053300004E058F8043D0BB9013FFAD1019B18462F
:105340001F6105B0BDE8F08F12F003032DE9F041B5
:10535000144607460E462CD1A4101CD0BD6C002D5F
:1053600030D04FF0000804E0641014D02868A8B1D1
:105370000546E307F8D5384631462A46FFF746FF8B
:10538000AEB17268FB6C641053F82210316043F8C0
:1053900022600646EAD13046BDE8F081384629460B
:1053A0002A46FFF733FF2860C0F80080E0E7064692
:1053B000DAE75D1E0A4A002352F82520FFF782FE35
:1053C0000646C9E701213846FFF74CFE40F271213D
:1053D00001220023416102610546B8640360C0E711
:1053E000806500082DE9F84F93460A698B684FEAFB
:1053F0006B1A0AEB020909F101069E420F4680462C
:10540000496804DD5B009E4201F10101FADC40467F
:10541000FFF728FEBAF1000F00F1140409DD0023A4
:105420001A4625460133534545F8042BFAD104EBBF
:1054300083043A6907F114031BF01F0B03EB820C82
:1054400021D0CBF1200A002200E02C461968254625
:1054500001FA0BF10A4345F8042B53F8042B63457A
:1054600022FA0AF2F1D362600AB109F10206D8F811
:105470004C307A68013E53F822100661396043F8D7
:105480002270BDE8F88F53F8042B44F8042B9C4598
:10549000EDD953F8042B44F8042B9C45F3D8E6E7E8
:1054A00002690B69D21A10B415D19B001430143163
:1054B0001944034401E0984211D253F8042D51F8E5
:1054C000044DA242F7D0944294BF01204FF0FF3028
:1054D0005DF8044B704710465DF8044B70470020A0
:1054E0005DF8044B704700BF2DE9F0470D460446B8
:1054F000114628461646FFF7D3FF071E55D04EDB50
:105500004FF0000869682046FFF7ACFD2F6932694B
:10551000C0F80C801435143600F1140305EB870C29
:1055200006EB8208002156F8042B55F8044B1FFAAD
:1055300082F911FA84FA110CC1EB1441C9EB0A0289
:1055400001EB224192B242EA0142B04543F8042BFA
:105550004FEA21412C46E6D8AC45984615D954F877
:10556000046B11FA86F1360C06EB214689B241EA4A
:105570000642A44543F8042B4FEA2641EFD8EB43FB
:10558000634423F0030304334344043B22B953F838
:10559000042D013F002AFAD00761BDE8F0872B46B1
:1055A0004FF0010835461E46ACE720463946FFF766
:1055B00059FD012347610361BDE8F0872DE9F04300
:1055C00083B001211D46C3F30A5614460A9FFFF714
:1055D00049FDC5F3130380460EB143F480130193D4
:1055E00024B302A840F8084D6846FFF7D7FD00280D
:1055F00035D19DE80C00C8F81420002B0CBF012405
:105600000224C8F81830C8F81040DEB908EB84034B
:10561000A0F2324038601869FFF7A0FD0B9BC0EB89
:1056200044101860404603B0BDE8F08301A8FFF7BE
:10563000B5FD0124019BC8F814302030C8F8104093
:10564000002EE3D0A6F2334909EB00033B600B9B2D
:10565000C0F135001860404603B0BDE8F0839DE816
:105660000C00C0F1200103FA01F10A43C340019389
:10567000C8F81420C1E700BF31F0004310B408D0CF
:105680000F4AA3F5801494420AD804205DF8044B15
:10569000704700280CBF022003205DF8044B7047C0
:1056A000B3F5801F01D20320F7E7064A934201D0E9
:1056B0000020F2E7D0F1010038BF0020EDE700BF85
:1056C000FFFFDF7F0000F07F20F0030110F00300F8
:1056D000C0F1000051F8043B00F1040C4FEACC0C7F
:1056E0006FF000021CBF22FA0CF213434FF0010CC2
:1056F0004CEA0C2C4CEA0C4CA3EB0C0222EA030201
:1057000012EACC1204BF51F8043B0430F4D013F079
:10571000FF0F1FBF013013F47F4F013013F47F0FD1
:1057200018BF0130704700BF2DE9F04F946816682C
:1057300083B0924680460D46002C6FD04FF0000B90
:1057400008688B685C46002C43D09C421F4645D3BA
:10575000AB8913F4906F44D06F69296907EB470751
:1057600007EBD777C1EB0009621C7F104A449742D0
:1057700034BF17463A465B0535D511464046FCF71F
:1057800065FD002839D0296901904A46FFF7D0FB12
:10579000AA89019B22F4906242F08002AA81C9EB9F
:1057A000070203EB09006F612B612860AA6027469E
:1057B000A1464A46594600F067F8DAF80820AB6877
:1057C0002868DB1B4844141BAB602860CAF80840FB
:1057D00024B3D6F800B074680836B4E72746A1466B
:1057E000E7E7B946E5E7404600F0F8F80346002849
:1057F000D5D140462969FFF781FAAA890C23C8F858
:10580000003042F0400200234FF0FF30AA81CAF876
:105810000830CAF8043003B0BDE8F08F2046CAF85B
:10582000044003B0BDE8F08F10B502FB01F1FCF7B6
:105830000DFD044668B150F8042C22F00302043A2E
:10584000242A18D8132A06D8034600221A605A6060
:105850009A60204610BD00231B2A036043600FD9C5
:10586000242A8360C36005BF0361436100F1100314
:1058700000F11803E9E7002100F066F8204610BDAA
:1058800000F10803E1E700BF8842F0B410D98C189A
:10589000A0420DD28518531E42B121462A4611F866
:1058A000014D02F8014D013B5C1CF8D1F0BC704782
:1058B0000F2A3FD940EA01039B073FD1A2F110070D
:1058C0003F0900EB071610360C46034625681D609D
:1058D00065685D60A5689D60E568DD601033B34272
:1058E00004F11004F2D17B1C02F00F0C1B01BCF17F
:1058F000030F1944034423D90E461D466446043C55
:1059000056F8047B45F8047B032CF8D8ACF104046A
:1059100024F00304043402F0030223442144002A47
:10592000C4D01A4411F8014B03F8014B9342F9D14A
:10593000F0BC70470346002AF3D1B7E70346F0E70F
:105940006246002AEDD1B1E7F0B4840743D0541E7B
:10595000002A3ED0CDB2034603E0621E002C38D0B0
:10596000144603F8015B9A07F7D1032C2AD9CDB26C
:1059700045EA05250F2C45EA054515D9A4F1100780
:105980003F0903F1100606EB07161A46156055602D
:105990009560D5601032B242F8D104F00F0401379F
:1059A000032C03EB07130DD91E462246043A032AA3
:1059B00046F8045BFAD8221F22F003020432134493
:1059C00004F003042CB1C9B21C4403F8011BA34228
:1059D000FBD1F0BC704714460346C6E72DE9F04FF3
:1059E0000C4683B090468146002900F0E280FCF727
:1059F000C9FE08F10B0654F8043C162E23F00305EB
:105A0000A4F108074BD810210E46B0454CD88D4262
:105A100078DADFF890B3DBF808E07819864500F013
:105A2000CE80426822F0010C8444DCF804C01CF0F3
:105A3000010F7AD000221046DB0700F1928054F863
:105A4000083CC3EB070ADAF8043023F003032B44C5
:105A500088B3704500F0ED8002EB030E8E452ADB23
:105A6000C36882685746D3609A6057F8081FDAF80F
:105A70000C30CB602A1F242A996000F22681132A59
:105A800040F2B3802368CAF808306368CAF80C3063
:105A90001B2A00F2308108340AF11003A6E026F038
:105AA0000706002E3146B0DA0C230020C9F800307A
:105AB00003B0BDE8F08F8B4253DB5746DAF80C1089
:105AC00057F8080F2A1F242AC160886000F2098154
:105AD000132A40F204812168CAF808106168CAF8E4
